{
    "contractName": "StudentRegistry",
    "abi": [
        {
            "anonymous": false,
            "inputs": [
                {
                    "indexed": true,
                    "internalType": "address",
                    "name": "sender",
                    "type": "address"
                },
                {
                    "indexed": false,
                    "internalType": "uint256",
                    "name": "value",
                    "type": "uint256"
                }
            ],
            "name": "ReceivedEther",
            "type": "event"
        },
        {
            "anonymous": false,
            "inputs": [
                {
                    "indexed": false,
                    "internalType": "string",
                    "name": "name",
                    "type": "string"
                },
                {
                    "indexed": false,
                    "internalType": "uint256",
                    "name": "age",
                    "type": "uint256"
                },
                {
                    "indexed": false,
                    "internalType": "uint256",
                    "name": "rollNumber",
                    "type": "uint256"
                }
            ],
            "name": "StudentAdded",
            "type": "event"
        },
        {
            "stateMutability": "payable",
            "type": "fallback"
        },
        {
            "inputs": [
                {
                    "internalType": "string",
                    "name": "name",
                    "type": "string"
                },
                {
                    "internalType": "uint256",
                    "name": "age",
                    "type": "uint256"
                },
                {
                    "internalType": "uint256",
                    "name": "rollNumber",
                    "type": "uint256"
                }
            ],
            "name": "addStudent",
            "outputs": [],
            "stateMutability": "nonpayable",
            "type": "function"
        },
        {
            "inputs": [
                {
                    "internalType": "uint256",
                    "name": "index",
                    "type": "uint256"
                }
            ],
            "name": "getStudent",
            "outputs": [
                {
                    "internalType": "string",
                    "name": "",
                    "type": "string"
                },
                {
                    "internalType": "uint256",
                    "name": "",
                    "type": "uint256"
                },
                {
                    "internalType": "uint256",
                    "name": "",
                    "type": "uint256"
                }
            ],
            "stateMutability": "view",
            "type": "function"
        },
        {
            "inputs": [],
            "name": "getStudentCount",
            "outputs": [
                {
                    "internalType": "uint256",
                    "name": "",
                    "type": "uint256"
                }
            ],
            "stateMutability": "view",
            "type": "function"
        },
        {
            "stateMutability": "payable",
            "type": "receive"
        }
    ],
    "bytecode": "6080806040523460155761055a908161001a8239f35b5f80fdfe6080806040526004361015610028575b5036156100205761001e6104f6565b005b61001e6104f6565b5f3560e01c90816341e0c407146103fd57508063642f9163146102ce5763682ad06e14610055575f61000f565b346102ca5760603660031901126102ca5760043567ffffffffffffffff81116102ca57366023820112156102ca57806004013567ffffffffffffffff81116102a357604051916100af601f8301601f191660200184610450565b81835236602483830101116102ca57815f92602460209301838601378301015260243560443591604051926060840184811067ffffffffffffffff8211176102a3576040528184526020840193838552604081018281525f54680100000000000000008110156102a35780600161012892015f55610472565b9290926102b7575195865167ffffffffffffffff81116102a35761014c84546104be565b601f811161025e575b506020601f82116001146101d25791816101c2969594926002947fb72ee84ef937eaea5b974fd7578aeb8437a4d8cd7a7062d03255206e0155b3549b5f926101c7575b50508160011b915f199060031b1c19161784555b5160018401555191015560405193849384610416565b0390a1005b015190505f80610198565b601f19821698855f52815f20995f5b8181106102465750927fb72ee84ef937eaea5b974fd7578aeb8437a4d8cd7a7062d03255206e0155b3549a60029593600193836101c29b9a99971061022e575b505050811b0184556101ac565b01515f1960f88460031b161c191690555f8080610221565b838301518c556001909b019a602093840193016101e1565b845f5260205f20601f830160051c81019160208410610299575b601f0160051c01905b81811061028e5750610155565b5f8155600101610281565b9091508190610278565b634e487b7160e01b5f52604160045260245ffd5b634e487b7160e01b5f525f60045260245ffd5b5f80fd5b346102ca5760203660031901126102ca576004355f548110156103c4576102f481610472565b50600261030e600161030585610472565b50015493610472565b50015460405180925f90805490610324826104be565b808552916001811690811561039d575060011461035e575b505061035a929161034e910384610450565b60405193849384610416565b0390f35b5f908152602081209092505b81831061038157505081016020018161034e61033c565b602091935080600191548385890101520191019091849261036a565b60ff191660208681019190915292151560051b8501909201925083915061034e905061033c565b60405162461bcd60e51b815260206004820152601160248201527014dd1d59195b9d081b9bdd08199bdd5b99607a1b6044820152606490fd5b346102ca575f3660031901126102ca576020905f548152f35b6080602060409396959496606084528051918291826060870152018385015e5f828285010152601f80199101168201019460208201520152565b90601f8019910116810190811067ffffffffffffffff8211176102a357604052565b5f548110156104aa575f8080526003919091027f290decd9548b62a8d60345a988386fc84ba6bc95484008f6362f93160ef3e5630191565b634e487b7160e01b5f52603260045260245ffd5b90600182811c921680156104ec575b60208310146104d857565b634e487b7160e01b5f52602260045260245ffd5b91607f16916104cd565b6040513481527fa419615bc8fda4c87663805ee2a3597a6d71c1d476911d9892f340d965bc7bf160203392a256fea2646970667358221220dcb450376895a8ae092e48438bdcbbadae9f3b8af880e33c282b618275d3e6cd64736f6c634300081c0033",
    "sourcePath": "c:/Users/Aditya/Downloads/pass-main/pass-main/BCT/student.sol",
    "compiler": {
        "name": "solc",
        "version": "0.8.28+commit.7893614a"
    },
    "functionHashes": {
        "addStudent(string,uint256,uint256)": "682ad06e",
        "getStudent(uint256)": "642f9163",
        "getStudentCount()": "41e0c407"
    },
    "gasEstimates": {
        "creation": {
            "codeDepositCost": "274000",
            "executionCost": "319",
            "totalCost": "274319"
        },
        "external": {
            "": "1596",
            "addStudent(string,uint256,uint256)": "infinite",
            "getStudent(uint256)": "infinite",
            "getStudentCount()": "2247"
        }
    }
}